{"abi":[{"type":"function","name":"agentCount","inputs":[],"outputs":[{"name":"","type":"uint256","internalType":"uint256"}],"stateMutability":"view"},{"type":"function","name":"agents","inputs":[{"name":"","type":"uint256","internalType":"uint256"}],"outputs":[{"name":"owner","type":"address","internalType":"address"},{"name":"agentURI","type":"string","internalType":"string"},{"name":"registeredAt","type":"uint256","internalType":"uint256"},{"name":"active","type":"bool","internalType":"bool"}],"stateMutability":"view"},{"type":"function","name":"feedbacks","inputs":[{"name":"","type":"uint256","internalType":"uint256"},{"name":"","type":"uint256","internalType":"uint256"}],"outputs":[{"name":"from","type":"address","internalType":"address"},{"name":"score","type":"int8","internalType":"int8"},{"name":"tag","type":"string","internalType":"string"},{"name":"timestamp","type":"uint256","internalType":"uint256"}],"stateMutability":"view"},{"type":"function","name":"getOwnerAgents","inputs":[{"name":"_owner","type":"address","internalType":"address"}],"outputs":[{"name":"","type":"uint256[]","internalType":"uint256[]"}],"stateMutability":"view"},{"type":"function","name":"getReputation","inputs":[{"name":"_agentId","type":"uint256","internalType":"uint256"}],"outputs":[{"name":"total","type":"int256","internalType":"int256"},{"name":"count","type":"uint256","internalType":"uint256"},{"name":"average","type":"int256","internalType":"int256"}],"stateMutability":"view"},{"type":"function","name":"giveFeedback","inputs":[{"name":"_agentId","type":"uint256","internalType":"uint256"},{"name":"_score","type":"int8","internalType":"int8"},{"name":"_tag","type":"string","internalType":"string"}],"outputs":[],"stateMutability":"nonpayable"},{"type":"function","name":"ownerAgents","inputs":[{"name":"","type":"address","internalType":"address"},{"name":"","type":"uint256","internalType":"uint256"}],"outputs":[{"name":"","type":"uint256","internalType":"uint256"}],"stateMutability":"view"},{"type":"function","name":"register","inputs":[{"name":"_agentURI","type":"string","internalType":"string"}],"outputs":[{"name":"agentId","type":"uint256","internalType":"uint256"}],"stateMutability":"nonpayable"},{"type":"function","name":"totalScore","inputs":[{"name":"","type":"uint256","internalType":"uint256"}],"outputs":[{"name":"","type":"int256","internalType":"int256"}],"stateMutability":"view"},{"type":"event","name":"AgentRegistered","inputs":[{"name":"agentId","type":"uint256","indexed":true,"internalType":"uint256"},{"name":"owner","type":"address","indexed":true,"internalType":"address"},{"name":"agentURI","type":"string","indexed":false,"internalType":"string"}],"anonymous":false},{"type":"event","name":"FeedbackGiven","inputs":[{"name":"agentId","type":"uint256","indexed":true,"internalType":"uint256"},{"name":"from","type":"address","indexed":true,"internalType":"address"},{"name":"score","type":"int8","indexed":false,"internalType":"int8"},{"name":"tag","type":"string","indexed":false,"internalType":"string"}],"anonymous":false}],"bytecode":{"object":"0x6080604052348015600e575f5ffd5b5061148f8061001c5f395ff3fe608060405234801561000f575f5ffd5b5060043610610091575f3560e01c80638cd8336d116100645780638cd8336d1461015a578063b7dc12841461018d578063f2c298be146101ab578063fafb2c50146101db578063ff595f78146101f757610091565b8063513856c81461009557806362febe4f146100c85780637585840a146100f857806389370d8b14610128575b5f5ffd5b6100af60048036038101906100aa9190610933565b610227565b6040516100bf9493929190610a36565b60405180910390f35b6100e260048036038101906100dd9190610aaa565b610304565b6040516100ef9190610ae8565b60405180910390f35b610112600480360381019061010d9190610b01565b61032f565b60405161011f9190610be3565b60405180910390f35b610142600480360381019061013d9190610933565b6103c2565b60405161015193929190610c1b565b60405180910390f35b610174600480360381019061016f9190610c50565b610413565b6040516101849493929190610ca8565b60405180910390f35b610195610509565b6040516101a29190610ae8565b60405180910390f35b6101c560048036038101906101c09190610e1e565b61050e565b6040516101d29190610ae8565b60405180910390f35b6101f560048036038101906101f09190610e8f565b6106ac565b005b610211600480360381019061020c9190610933565b6108da565b60405161021e9190610efb565b60405180910390f35b6001602052805f5260405f205f91509050805f015f9054906101000a900473ffffffffffffffffffffffffffffffffffffffff169080600101805461026b90610f41565b80601f016020809104026020016040519081016040528092919081815260200182805461029790610f41565b80156102e25780601f106102b9576101008083540402835291602001916102e2565b820191905f5260205f20905b8154815290600101906020018083116102c557829003601f168201915b505050505090806002015490806003015f9054906101000a900460ff16905084565b6002602052815f5260405f20818154811061031d575f80fd5b905f5260205f20015f91509150505481565b606060025f8373ffffffffffffffffffffffffffffffffffffffff1673ffffffffffffffffffffffffffffffffffffffff1681526020019081526020015f208054806020026020016040519081016040528092919081815260200182805480156103b657602002820191905f5260205f20905b8154815260200190600101908083116103a2575b50505050509050919050565b5f5f5f60045f8581526020019081526020015f2054925060035f8581526020019081526020015f208054905091505f82116103fd575f61040a565b81836104099190610fcb565b5b90509193909250565b6003602052815f5260405f20818154811061042c575f80fd5b905f5260205f2090600302015f9150915050805f015f9054906101000a900473ffffffffffffffffffffffffffffffffffffffff1690805f0160149054906101000a90045f0b9080600101805461048290610f41565b80601f01602080910402602001604051908101604052809291908181526020018280546104ae90610f41565b80156104f95780601f106104d0576101008083540402835291602001916104f9565b820191905f5260205f20905b8154815290600101906020018083116104dc57829003601f168201915b5050505050908060020154905084565b5f5481565b5f5f5f81548092919061052090611033565b91905055905060405180608001604052803373ffffffffffffffffffffffffffffffffffffffff1681526020018381526020014281526020016001151581525060015f8381526020019081526020015f205f820151815f015f6101000a81548173ffffffffffffffffffffffffffffffffffffffff021916908373ffffffffffffffffffffffffffffffffffffffff16021790555060208201518160010190816105ca919061122b565b50604082015181600201556060820151816003015f6101000a81548160ff02191690831515021790555090505060025f3373ffffffffffffffffffffffffffffffffffffffff1673ffffffffffffffffffffffffffffffffffffffff1681526020019081526020015f2081908060018154018082558091505060019003905f5260205f20015f90919091909150553373ffffffffffffffffffffffffffffffffffffffff16817f0d063c6022bff16d09991a9f91882ffa112f5fb2529136f65eb4c77bbd047e438460405161069f91906112fa565b60405180910390a3919050565b5f5483106106ef576040517f08c379a00000000000000000000000000000000000000000000000000000000081526004016106e690611364565b60405180910390fd5b7fffffffffffffffffffffffffffffffffffffffffffffffffffffffffffffff9c825f0b1215801561072457506064825f0b13155b610763576040517f08c379a000000000000000000000000000000000000000000000000000000000815260040161075a906113cc565b60405180910390fd5b60035f8481526020019081526020015f2060405180608001604052803373ffffffffffffffffffffffffffffffffffffffff168152602001845f0b815260200183815260200142815250908060018154018082558091505060019003905f5260205f2090600302015f909190919091505f820151815f015f6101000a81548173ffffffffffffffffffffffffffffffffffffffff021916908373ffffffffffffffffffffffffffffffffffffffff1602179055506020820151815f0160146101000a81548160ff02191690835f0b60ff160217905550604082015181600101908161084e919061122b565b50606082015181600201555050815f0b60045f8581526020019081526020015f205f82825461087d91906113ea565b925050819055503373ffffffffffffffffffffffffffffffffffffffff16837fd6a0fff6745e8fa234eb3731ac71f9117ddc22b6ca7435af6b1444b6576eb5df84846040516108cd92919061142b565b60405180910390a3505050565b6004602052805f5260405f205f915090505481565b5f604051905090565b5f5ffd5b5f5ffd5b5f819050919050565b61091281610900565b811461091c575f5ffd5b50565b5f8135905061092d81610909565b92915050565b5f60208284031215610948576109476108f8565b5b5f6109558482850161091f565b91505092915050565b5f73ffffffffffffffffffffffffffffffffffffffff82169050919050565b5f6109878261095e565b9050919050565b6109978161097d565b82525050565b5f81519050919050565b5f82825260208201905092915050565b8281835e5f83830152505050565b5f601f19601f8301169050919050565b5f6109df8261099d565b6109e981856109a7565b93506109f98185602086016109b7565b610a02816109c5565b840191505092915050565b610a1681610900565b82525050565b5f8115159050919050565b610a3081610a1c565b82525050565b5f608082019050610a495f83018761098e565b8181036020830152610a5b81866109d5565b9050610a6a6040830185610a0d565b610a776060830184610a27565b95945050505050565b610a898161097d565b8114610a93575f5ffd5b50565b5f81359050610aa481610a80565b92915050565b5f5f60408385031215610ac057610abf6108f8565b5b5f610acd85828601610a96565b9250506020610ade8582860161091f565b9150509250929050565b5f602082019050610afb5f830184610a0d565b92915050565b5f60208284031215610b1657610b156108f8565b5b5f610b2384828501610a96565b91505092915050565b5f81519050919050565b5f82825260208201905092915050565b5f819050602082019050919050565b610b5e81610900565b82525050565b5f610b6f8383610b55565b60208301905092915050565b5f602082019050919050565b5f610b9182610b2c565b610b9b8185610b36565b9350610ba683610b46565b805f5b83811015610bd6578151610bbd8882610b64565b9750610bc883610b7b565b925050600181019050610ba9565b5085935050505092915050565b5f6020820190508181035f830152610bfb8184610b87565b905092915050565b5f819050919050565b610c1581610c03565b82525050565b5f606082019050610c2e5f830186610c0c565b610c3b6020830185610a0d565b610c486040830184610c0c565b949350505050565b5f5f60408385031215610c6657610c656108f8565b5b5f610c738582860161091f565b9250506020610c848582860161091f565b9150509250929050565b5f815f0b9050919050565b610ca281610c8e565b82525050565b5f608082019050610cbb5f83018761098e565b610cc86020830186610c99565b8181036040830152610cda81856109d5565b9050610ce96060830184610a0d565b95945050505050565b5f5ffd5b5f5ffd5b7f4e487b71000000000000000000000000000000000000000000000000000000005f52604160045260245ffd5b610d30826109c5565b810181811067ffffffffffffffff82111715610d4f57610d4e610cfa565b5b80604052505050565b5f610d616108ef565b9050610d6d8282610d27565b919050565b5f67ffffffffffffffff821115610d8c57610d8b610cfa565b5b610d95826109c5565b9050602081019050919050565b828183375f83830152505050565b5f610dc2610dbd84610d72565b610d58565b905082815260208101848484011115610dde57610ddd610cf6565b5b610de9848285610da2565b509392505050565b5f82601f830112610e0557610e04610cf2565b5b8135610e15848260208601610db0565b91505092915050565b5f60208284031215610e3357610e326108f8565b5b5f82013567ffffffffffffffff811115610e5057610e4f6108fc565b5b610e5c84828501610df1565b91505092915050565b610e6e81610c8e565b8114610e78575f5ffd5b50565b5f81359050610e8981610e65565b92915050565b5f5f5f60608486031215610ea657610ea56108f8565b5b5f610eb38682870161091f565b9350506020610ec486828701610e7b565b925050604084013567ffffffffffffffff811115610ee557610ee46108fc565b5b610ef186828701610df1565b9150509250925092565b5f602082019050610f0e5f830184610c0c565b92915050565b7f4e487b71000000000000000000000000000000000000000000000000000000005f52602260045260245ffd5b5f6002820490506001821680610f5857607f821691505b602082108103610f6b57610f6a610f14565b5b50919050565b7f4e487b71000000000000000000000000000000000000000000000000000000005f52601260045260245ffd5b7f4e487b71000000000000000000000000000000000000000000000000000000005f52601160045260245ffd5b5f610fd582610c03565b9150610fe083610c03565b925082610ff057610fef610f71565b5b60015f0383147f80000000000000000000000000000000000000000000000000000000000000008314161561102857611027610f9e565b5b828205905092915050565b5f61103d82610900565b91507fffffffffffffffffffffffffffffffffffffffffffffffffffffffffffffffff820361106f5761106e610f9e565b5b600182019050919050565b5f819050815f5260205f209050919050565b5f6020601f8301049050919050565b5f82821b905092915050565b5f600883026110d67fffffffffffffffffffffffffffffffffffffffffffffffffffffffffffffffff8261109b565b6110e0868361109b565b95508019841693508086168417925050509392505050565b5f819050919050565b5f61111b61111661111184610900565b6110f8565b610900565b9050919050565b5f819050919050565b61113483611101565b61114861114082611122565b8484546110a7565b825550505050565b5f5f905090565b61115f611150565b61116a81848461112b565b505050565b5f5b82811015611190576111855f828401611157565b600181019050611171565b505050565b601f8211156111e357828211156111e2576111af8161107a565b6111b88361108c565b6111c18561108c565b60208610156111ce575f90505b8083016111dd8284038261116f565b505050505b5b505050565b5f82821c905092915050565b5f6112035f19846008026111e8565b1980831691505092915050565b5f61121b83836111f4565b9150826002028217905092915050565b6112348261099d565b67ffffffffffffffff81111561124d5761124c610cfa565b5b6112578254610f41565b611262828285611195565b5f60209050601f831160018114611293575f8415611281578287015190505b61128b8582611210565b8655506112f2565b601f1984166112a18661107a565b5f5b828110156112c8578489015182556001820191506020850194506020810190506112a3565b868310156112e557848901516112e1601f8916826111f4565b8355505b6001600288020188555050505b505050505050565b5f6020820190508181035f83015261131281846109d5565b905092915050565b7f4167656e74206e6f7420666f756e6400000000000000000000000000000000005f82015250565b5f61134e600f836109a7565b91506113598261131a565b602082019050919050565b5f6020820190508181035f83015261137b81611342565b9050919050565b7f53636f7265206f7574206f662072616e676500000000000000000000000000005f82015250565b5f6113b66012836109a7565b91506113c182611382565b602082019050919050565b5f6020820190508181035f8301526113e3816113aa565b9050919050565b5f6113f482610c03565b91506113ff83610c03565b92508282019050828112155f8312168382125f84121516171561142557611424610f9e565b5b92915050565b5f60408201905061143e5f830185610c99565b818103602083015261145081846109d5565b9050939250505056fea264697066735822122096eb767e775ed072982a1f68a6d29e7372aadba0247c9b349815415800e4e9b564736f6c63430008210033","linkReferences":{}},"methodIdentifiers":{"agentCount()":"b7dc1284","agents(uint256)":"513856c8","feedbacks(uint256,uint256)":"8cd8336d","getOwnerAgents(address)":"7585840a","getReputation(uint256)":"89370d8b","giveFeedback(uint256,int8,string)":"fafb2c50","ownerAgents(address,uint256)":"62febe4f","register(string)":"f2c298be","totalScore(uint256)":"ff595f78"},"id":0}